{
  "abi": [
    {
      "type": "function",
      "name": "main",
      "inputs": [
        {
          "name": "unverifiedEmail",
          "type": "tuple",
          "internalType": "struct UnverifiedEmail",
          "components": [
            {
              "name": "email",
              "type": "string",
              "internalType": "string"
            },
            {
              "name": "dnsRecords",
              "type": "string[]",
              "internalType": "string[]"
            }
          ]
        }
      ],
      "outputs": [
        {
          "name": "",
          "type": "tuple",
          "internalType": "struct Proof",
          "components": [
            {
              "name": "seal",
              "type": "tuple",
              "internalType": "struct Seal",
              "components": [
                {
                  "name": "verifierSelector",
                  "type": "bytes4",
                  "internalType": "bytes4"
                },
                {
                  "name": "seal",
                  "type": "bytes32[8]",
                  "internalType": "bytes32[8]"
                },
                {
                  "name": "mode",
                  "type": "uint8",
                  "internalType": "enum ProofMode"
                }
              ]
            },
            {
              "name": "callGuestId",
              "type": "bytes32",
              "internalType": "bytes32"
            },
            {
              "name": "length",
              "type": "uint256",
              "internalType": "uint256"
            },
            {
              "name": "callAssumptions",
              "type": "tuple",
              "internalType": "struct CallAssumptions",
              "components": [
                {
                  "name": "proverContractAddress",
                  "type": "address",
                  "internalType": "address"
                },
                {
                  "name": "functionSelector",
                  "type": "bytes4",
                  "internalType": "bytes4"
                },
                {
                  "name": "settleBlockNumber",
                  "type": "uint256",
                  "internalType": "uint256"
                },
                {
                  "name": "settleBlockHash",
                  "type": "bytes32",
                  "internalType": "bytes32"
                }
              ]
            }
          ]
        },
        {
          "name": "",
          "type": "address",
          "internalType": "address"
        }
      ],
      "stateMutability": "view"
    },
    {
      "type": "function",
      "name": "proof",
      "inputs": [],
      "outputs": [
        {
          "name": "",
          "type": "tuple",
          "internalType": "struct Proof",
          "components": [
            {
              "name": "seal",
              "type": "tuple",
              "internalType": "struct Seal",
              "components": [
                {
                  "name": "verifierSelector",
                  "type": "bytes4",
                  "internalType": "bytes4"
                },
                {
                  "name": "seal",
                  "type": "bytes32[8]",
                  "internalType": "bytes32[8]"
                },
                {
                  "name": "mode",
                  "type": "uint8",
                  "internalType": "enum ProofMode"
                }
              ]
            },
            {
              "name": "callGuestId",
              "type": "bytes32",
              "internalType": "bytes32"
            },
            {
              "name": "length",
              "type": "uint256",
              "internalType": "uint256"
            },
            {
              "name": "callAssumptions",
              "type": "tuple",
              "internalType": "struct CallAssumptions",
              "components": [
                {
                  "name": "proverContractAddress",
                  "type": "address",
                  "internalType": "address"
                },
                {
                  "name": "functionSelector",
                  "type": "bytes4",
                  "internalType": "bytes4"
                },
                {
                  "name": "settleBlockNumber",
                  "type": "uint256",
                  "internalType": "uint256"
                },
                {
                  "name": "settleBlockHash",
                  "type": "bytes32",
                  "internalType": "bytes32"
                }
              ]
            }
          ]
        }
      ],
      "stateMutability": "pure"
    },
    {
      "type": "function",
      "name": "setBlock",
      "inputs": [
        {
          "name": "blockNo",
          "type": "uint256",
          "internalType": "uint256"
        }
      ],
      "outputs": [],
      "stateMutability": "nonpayable"
    },
    {
      "type": "function",
      "name": "setChain",
      "inputs": [
        {
          "name": "chainId",
          "type": "uint256",
          "internalType": "uint256"
        },
        {
          "name": "blockNo",
          "type": "uint256",
          "internalType": "uint256"
        }
      ],
      "outputs": [],
      "stateMutability": "nonpayable"
    },
    {
      "type": "error",
      "name": "FailedInnerCall",
      "inputs": []
    }
  ],
  "bytecode": {
    "object": "0x6080604052348015600f57600080fd5b50610f388061001f6000396000f3fe608060405234801561001057600080fd5b506004361061004c5760003560e01c806387cea3ae14610051578063b224ae6914610066578063faf924cf14610090578063ffbc5638146100a5575b600080fd5b61006461005f3660046107ed565b6100b8565b005b610079610074366004610806565b610132565b6040516100879291906108fd565b60405180910390f35b61009861031a565b6040516100879190610925565b6100646100b3366004610934565b61032f565b6040516343e751d760e11b8152600481018290527376dc9aa45aa006a0f63942d8f9f21bd4537972a3906387cea3ae906024016020604051808303816000875af115801561010a573d6000803e3d6000fd5b505050506040513d601f19601f8201168201806040525081019061012e9190610956565b5050565b61013a61075b565b60008061014e61014985610aad565b6103b4565b90506000610179604051806060016040528060298152602001610eda60299139604084015190610488565b905080516002146101e15760405162461bcd60e51b815260206004820152602760248201527f7375626a656374206d757374206d6174636820746865206578706563746564206044820152663830ba3a32b93760c91b60648201526084015b60405180910390fd5b6000816001815181106101f6576101f6610b8b565b602002602001015151116102675760405162461bcd60e51b815260206004820152603260248201527f656d61696c20686561646572206d75737420636f6e7461696e20612076616c696044820152716420457468657265756d206164647265737360701b60648201526084016101d8565b60408051808201909152600f81526e178b8a901d9b185e595c8b9e1e5e89608a1b6020820152825161029891610547565b6102e45760405162461bcd60e51b815260206004820152601d60248201527f66726f6d206d757374206265206120766c61796572206164647265737300000060448201526064016101d8565b6102ec61031a565b61030f8260018151811061030257610302610b8b565b6020026020010151610607565b935093505050915091565b61032261075b565b61032a610612565b905090565b60405160016208753960e31b0319815260048101839052602481018290527376dc9aa45aa006a0f63942d8f9f21bd4537972a39063ffbc5638906044016020604051808303816000875af115801561038b573d6000803e3d6000fd5b505050506040513d601f19601f820116820180604052508101906103af9190610956565b505050565b6103df6040518060800160405280606081526020016060815260200160608152602001606081525090565b6000806101016001600160a01b0316846040516020016103ff9190610bf1565b60408051601f198184030181529082905261041991610c74565b600060405180830381855afa9150503d8060008114610454576040519150601f19603f3d011682016040523d82523d6000602084013e610459565b606091505b50915091506104688282610627565b5060008180602001905181019061047f9190610cdd565b95945050505050565b60606000806101116001600160a01b03166040518060400160405280878152602001868152506040516020016104be9190610db6565b60408051601f19818403018152908290526104d891610c74565b600060405180830381855afa9150503d8060008114610513576040519150601f19603f3d011682016040523d82523d6000602084013e610518565b606091505b50915091506105278282610627565b508080602001905181019061053c9190610e03565b925050505b92915050565b60008060006101106001600160a01b031660405180604001604052808781526020018681525060405160200161057d9190610db6565b60408051601f198184030181529082905261059791610c74565b600060405180830381855afa9150503d80600081146105d2576040519150601f19603f3d011682016040523d82523d6000602084013e6105d7565b606091505b50915091506105e68282610627565b506000818060200190518101906105fd9190610956565b9695505050505050565b600061054182610643565b61061a61075b565b61062261075b565b919050565b60608261063c5761063782610652565b610541565b5080610541565b6000610541826000845161067b565b8051156106625780518082602001fd5b604051630a12f52160e11b815260040160405180910390fd5b60008381845b848110156106d65760006106a061069b8584016020015190565b6106e2565b9050600f8160ff1611156106bb5760009450505050506106db565b6106c6601084610eb4565b60ff909116019150600101610681565b509150505b9392505050565b600060f882901c602f811180156106fc5750603a8160ff16105b1561070a57602f1901610541565b60608160ff16118015610720575060678160ff16105b1561072e5760561901610541565b60408160ff16118015610744575060478160ff16105b156107525760361901610541565b5060ff92915050565b604051806080016040528061076e6107a7565b81526000602080830182905260408084018390528051608081018252838152918201839052810182905260608181019290925291015290565b604080516060810190915260008152602081016107c26107ce565b81526020016000905290565b6040518061010001604052806008906020820280368337509192915050565b6000602082840312156107ff57600080fd5b5035919050565b60006020828403121561081857600080fd5b813567ffffffffffffffff81111561082f57600080fd5b8201604081850312156106db57600080fd5b805180516001600160e01b031916835260208082015181850160005b600881101561087a5782518252918301919083019060010161085d565b5050505060400151600281106108a057634e487b7160e01b600052602160045260246000fd5b61012083015260208181015161014084015260408083015161016085015260609283015180516001600160a01b0316610180860152918201516001600160e01b0319166101a08501528101516101c084015201516101e090910152565b610220810161090c8285610841565b6001600160a01b03929092166102009190910152919050565b61020081016105418284610841565b6000806040838503121561094757600080fd5b50508035926020909101359150565b60006020828403121561096857600080fd5b815180151581146106db57600080fd5b634e487b7160e01b600052604160045260246000fd5b6040805190810167ffffffffffffffff811182821017156109b1576109b1610978565b60405290565b6040516080810167ffffffffffffffff811182821017156109b1576109b1610978565b604051601f8201601f1916810167ffffffffffffffff81118282101715610a0357610a03610978565b604052919050565b600067ffffffffffffffff821115610a2557610a25610978565b50601f01601f191660200190565b600082601f830112610a4457600080fd5b8135610a57610a5282610a0b565b6109da565b818152846020838601011115610a6c57600080fd5b816020850160208301376000918101602001919091529392505050565b600067ffffffffffffffff821115610aa357610aa3610978565b5060051b60200190565b600060408236031215610abf57600080fd5b610ac761098e565b823567ffffffffffffffff80821115610adf57600080fd5b610aeb36838701610a33565b8352602091508185013581811115610b0257600080fd5b850136601f820112610b1357600080fd5b8035610b21610a5282610a89565b81815260059190911b82018401908481019036831115610b4057600080fd5b8584015b83811015610b7857803586811115610b5c5760008081fd5b610b6a368983890101610a33565b845250918601918601610b44565b5094860194909452509295945050505050565b634e487b7160e01b600052603260045260246000fd5b60005b83811015610bbc578181015183820152602001610ba4565b50506000910152565b60008151808452610bdd816020860160208601610ba1565b601f01601f19169290920160200192915050565b600060208083528351604082850152610c0d6060850182610bc5565b82860151601f198683038101604088015281518084529293509084019183850190600581901b8501860160005b82811015610c665784878303018452610c54828751610bc5565b95880195938801939150600101610c3a565b509998505050505050505050565b60008251610c86818460208701610ba1565b9190910192915050565b600082601f830112610ca157600080fd5b8151610caf610a5282610a0b565b818152846020838601011115610cc457600080fd5b610cd5826020830160208701610ba1565b949350505050565b600060208284031215610cef57600080fd5b815167ffffffffffffffff80821115610d0757600080fd5b9083019060808286031215610d1b57600080fd5b610d236109b7565b825182811115610d3257600080fd5b610d3e87828601610c90565b825250602083015182811115610d5357600080fd5b610d5f87828601610c90565b602083015250604083015182811115610d7757600080fd5b610d8387828601610c90565b604083015250606083015182811115610d9b57600080fd5b610da787828601610c90565b60608301525095945050505050565b60208082526000906060830183820185845b6002811015610df757601f19878503018352610de5848351610bc5565b93509184019190840190600101610dc8565b50919695505050505050565b60006020808385031215610e1657600080fd5b825167ffffffffffffffff80821115610e2e57600080fd5b818501915085601f830112610e4257600080fd5b8151610e50610a5282610a89565b81815260059190911b83018401908481019088831115610e6f57600080fd5b8585015b83811015610ea757805185811115610e8b5760008081fd5b610e998b89838a0101610c90565b845250918601918601610e73565b5098975050505050505050565b808202811582820484141761054157634e487b7160e01b600052601160045260246000fdfe5e57656c636f6d6520746f20766c617965722c203078285b612d66412d46302d395d7b34307d292124a26469706673582212202cd643fd5f2161961c6750a93a7c8ca57b865fec7586d9636a7d33f209eb852d64736f6c63430008190033",
    "linkReferences": {}
  },
  "methodIdentifiers": {
    "main((string,string[]))": "b224ae69",
    "proof()": "faf924cf",
    "setBlock(uint256)": "87cea3ae",
    "setChain(uint256,uint256)": "ffbc5638"
  },
  "id": 55
}