{
  "abi": [
    {
      "type": "constructor",
      "inputs": [
        {
          "name": "_prover",
          "type": "address",
          "internalType": "address"
        }
      ],
      "stateMutability": "nonpayable"
    },
    {
      "type": "function",
      "name": "prover",
      "inputs": [],
      "outputs": [
        {
          "name": "",
          "type": "address",
          "internalType": "address"
        }
      ],
      "stateMutability": "view"
    },
    {
      "type": "function",
      "name": "shiftOffset",
      "inputs": [
        {
          "name": "data",
          "type": "bytes",
          "internalType": "bytes"
        },
        {
          "name": "shiftBy",
          "type": "uint256",
          "internalType": "uint256"
        },
        {
          "name": "offsetPosition",
          "type": "uint256",
          "internalType": "uint256"
        }
      ],
      "outputs": [
        {
          "name": "",
          "type": "bytes",
          "internalType": "bytes"
        }
      ],
      "stateMutability": "pure"
    },
    {
      "type": "function",
      "name": "verifier",
      "inputs": [],
      "outputs": [
        {
          "name": "",
          "type": "address",
          "internalType": "contract IProofVerifier"
        }
      ],
      "stateMutability": "view"
    },
    {
      "type": "function",
      "name": "verify",
      "inputs": [
        {
          "name": "",
          "type": "tuple",
          "internalType": "struct Proof",
          "components": [
            {
              "name": "seal",
              "type": "tuple",
              "internalType": "struct Seal",
              "components": [
                {
                  "name": "verifierSelector",
                  "type": "bytes4",
                  "internalType": "bytes4"
                },
                {
                  "name": "seal",
                  "type": "bytes32[8]",
                  "internalType": "bytes32[8]"
                },
                {
                  "name": "mode",
                  "type": "uint8",
                  "internalType": "enum ProofMode"
                }
              ]
            },
            {
              "name": "callGuestId",
              "type": "bytes32",
              "internalType": "bytes32"
            },
            {
              "name": "length",
              "type": "uint256",
              "internalType": "uint256"
            },
            {
              "name": "callAssumptions",
              "type": "tuple",
              "internalType": "struct CallAssumptions",
              "components": [
                {
                  "name": "proverContractAddress",
                  "type": "address",
                  "internalType": "address"
                },
                {
                  "name": "functionSelector",
                  "type": "bytes4",
                  "internalType": "bytes4"
                },
                {
                  "name": "settleBlockNumber",
                  "type": "uint256",
                  "internalType": "uint256"
                },
                {
                  "name": "settleBlockHash",
                  "type": "bytes32",
                  "internalType": "bytes32"
                }
              ]
            }
          ]
        },
        {
          "name": "wallet",
          "type": "address",
          "internalType": "address"
        }
      ],
      "outputs": [],
      "stateMutability": "view"
    },
    {
      "type": "error",
      "name": "InvalidChainId",
      "inputs": []
    }
  ],
  "bytecode": {
    "object": "0x608060405234801561001057600080fd5b5060405161575838038061575883398101604081905261002f91610188565b61003761006b565b600080546001600160a01b039283166001600160a01b031991821617909155600180549390921692169190911790556101b8565b60006100756100df565b156100805750600090565b46617a6914806100935750610093610130565b156100c6576040516100a49061017b565b604051809103906000f0801580156100c0573d6000803e3d6000fd5b50905090565b604051633d23e4d160e11b815260040160405180910390fd5b600046600114806100f0575046600a145b806100fc575046612105145b8061010857504661a4b1145b8061011457504661a4ba145b8061011f5750466089145b8061012b575046610144145b905090565b60004662aa36a7148061014557504662aa37dc145b8061015257504662014a34145b8061015f57504662013882145b8061016c57504662066eee145b8061012b57505061012c461490565b614a5780610d0183390190565b60006020828403121561019a57600080fd5b81516001600160a01b03811681146101b157600080fd5b9392505050565b610b3a806101c76000396000f3fe608060405234801561001057600080fd5b506004361061004c5760003560e01c80632b7ac3f31461005157806332a8f30f14610081578063a7ddb0b714610094578063e5e22773146100a9575b600080fd5b600054610064906001600160a01b031681565b6040516001600160a01b0390911681526020015b60405180910390f35b600154610064906001600160a01b031681565b6100a76100a23660046105d5565b6100c9565b005b6100bc6100b73660046106ca565b6100ed565b6040516100789190610794565b6001546001600160a01b031663b224ae6960e01b6100e7828261018e565b50505050565b60606000826020806100ff81806107dd565b61010991906107dd565b61011391906107dd565b61011d91906107dd565b9050808551101561016d5760405162461bcd60e51b8152602060048201526016602482015275115b98dbd919590819185d18481d1bdbc81cda1bdc9d60521b604482015260640160405180910390fd5b84810151600061017d86836107f6565b928701929092525093949350505050565b600080610199610209565b6000546040516312f238c760e21b81529294509092506001600160a01b031690634bc8e31c906101d39085908590899089906004016108c5565b60006040518083038186803b1580156101eb57600080fd5b505afa1580156101ff573d6000803e3d6000fd5b5050505050505050565b61021161052c565b6000806102213660048184610905565b81019061022e91906109a8565b9050600060208061023f81806107dd565b61024991906107dd565b61025391906107dd565b60208080610263610100826107dd565b61026d91906107dd565b61027791906107dd565b61028191906107dd565b61028c9060046107dd565b61029691906107dd565b905060006020806102a781806107dd565b6102b191906107dd565b6102bb91906107dd565b6020806102c881806107dd565b6102d291906107dd565b6102dc91906107dd565b602080806102ec610100826107dd565b6102f691906107dd565b61030091906107dd565b61030a91906107dd565b61031491906107dd565b846040015161032391906107f6565b61032d91906107f6565b9050600061033b82846107dd565b90506000803660208080610351610100826107dd565b61035b91906107dd565b61036591906107dd565b61036f91906107dd565b61037a9060046107dd565b9060208061038881806107dd565b61039291906107dd565b61039c91906107dd565b602080806103ac610100826107dd565b6103b691906107dd565b6103c091906107dd565b6103ca91906107dd565b6103d59060046107dd565b6103df91906107dd565b926103ec93929190610905565b8080601f016020809104026020016040519081016040528093929190818152602001838380828437600092018290525093945061043192508591508790503684610905565b8080601f016020809104026020016040519081016040528093929190818152602001838380828437600092018290525093945085925061047391506105179050565b6040516020016104839190610a7d565b60408051601f19818403018152908290526104a392918590602001610a8c565b604051602081830303815290604052905060006002826040516104c69190610acf565b602060405180830381855afa1580156104e3573d6000803e3d6000fd5b5050506040513d601f19601f820116820180604052508101906105069190610aeb565b979a97995096975050505050505050565b61051f61052c565b61052761052c565b919050565b604051806080016040528061053f610578565b81526000602080830182905260408084018390528051608081018252838152918201839052810182905260608181019290925291015290565b6040805160608101909152600081526020810161059361059f565b81526020016000905290565b6040518061010001604052806008906020820280368337509192915050565b80356001600160a01b038116811461052757600080fd5b6000808284036102208112156105ea57600080fd5b610200808212156105fa57600080fd5b8493506106088186016105be565b925050509250929050565b634e487b7160e01b600052604160045260246000fd5b6040516080810167ffffffffffffffff8111828210171561064c5761064c610613565b60405290565b6040516060810167ffffffffffffffff8111828210171561064c5761064c610613565b604051610100810167ffffffffffffffff8111828210171561064c5761064c610613565b604051601f8201601f1916810167ffffffffffffffff811182821017156106c2576106c2610613565b604052919050565b6000806000606084860312156106df57600080fd5b833567ffffffffffffffff808211156106f757600080fd5b818601915086601f83011261070b57600080fd5b813560208282111561071f5761071f610613565b610731601f8301601f19168201610699565b9250818352888183860101111561074757600080fd5b818185018285013760009183018101919091529097908601359650604090950135949350505050565b60005b8381101561078b578181015183820152602001610773565b50506000910152565b60208152600082518060208401526107b3816040850160208701610770565b601f01601f19169190910160400192915050565b634e487b7160e01b600052601160045260246000fd5b808201808211156107f0576107f06107c7565b92915050565b818103818111156107f0576107f06107c7565b805180516001600160e01b031916835260208082015181850160005b600881101561084257825182529183019190830190600101610825565b50505050604001516002811061086857634e487b7160e01b600052602160045260246000fd5b61012083015260208181015161014084015260408083015161016085015260609283015180516001600160a01b0316610180860152918201516001600160e01b0319166101a08501528101516101c084015201516101e090910152565b61026081016108d48287610809565b6102008201949094526001600160a01b03929092166102208301526001600160e01b03191661024090910152919050565b6000808585111561091557600080fd5b8386111561092257600080fd5b5050820193919092039150565b80356001600160e01b03198116811461052757600080fd5b80356002811061052757600080fd5b60006080828403121561096857600080fd5b610970610629565b905061097b826105be565b81526109896020830161092f565b6020820152604082013560408201526060820135606082015292915050565b60008183036102008112156109bc57600080fd5b6109c4610629565b610140808312156109d457600080fd5b6109dc610652565b92506109e78561092f565b8352602086603f8701126109fa57600080fd5b610a02610675565b80610120880189811115610a1557600080fd5b602089015b81811015610a315780358452928401928401610a1a565b50816020880152610a4181610947565b604088015250505050828252808501356020830152506101608401356040820152610a70856101808601610956565b6060820152949350505050565b61020081016107f08284610809565b60008451610a9e818460208901610770565b845190830190610ab2818360208901610770565b8451910190610ac5818360208801610770565b0195945050505050565b60008251610ae1818460208701610770565b9190910192915050565b600060208284031215610afd57600080fd5b505191905056fea26469706673582212204b4b290dac526594ea0f992851599c0c695b7f21a8ebd57ddecef8b09da6936864736f6c634300081900336080604052604051600e9060a0565b604051809103906000f0801580156029573d6000803e3d6000fd5b50600080546001600160a01b0319166001600160a01b039290921691909117905560405160549060ad565b604051809103906000f080158015606f573d6000803e3d6000fd5b50600180546001600160a01b0319166001600160a01b0392909216919091179055348015609b57600080fd5b5060ba565b6114808061060183390190565b612fd680611a8183390190565b610538806100c96000396000f3fe608060405234801561001057600080fd5b506004361061004c5760003560e01c80634bc8e31c146100515780634e8f939614610066578063a01b86d314610081578063bf877a43146100ac575b600080fd5b61006461005f366004610299565b6100bf565b005b61006e6101f2565b6040519081526020015b60405180910390f35b600054610094906001600160a01b031681565b6040516001600160a01b039091168152602001610078565b600154610094906001600160a01b031681565b60016100da6100d336879003870187610357565b6040015190565b60018111156100eb576100eb6102f2565b0361015b576000546040516312f238c760e21b81526001600160a01b0390911690634bc8e31c90610126908790879087908790600401610404565b60006040518083038186803b15801561013e57600080fd5b505afa158015610152573d6000803e3d6000fd5b505050506101ec565b600061016f6100d336879003870187610357565b6001811115610180576101806102f2565b036101ec576001546040516312f238c760e21b81526001600160a01b0390911690634bc8e31c906101bb908790879087908790600401610404565b60006040518083038186803b1580156101d357600080fd5b505afa1580156101e7573d6000803e3d6000fd5b505050505b50505050565b60015460408051632747c9cb60e11b815290516000926001600160a01b031691634e8f93969160048083019260209291908290030181865afa15801561023c573d6000803e3d6000fd5b505050506040513d601f19601f8201168201806040525081019061026091906104e9565b905090565b80356001600160a01b038116811461027c57600080fd5b919050565b80356001600160e01b03198116811461027c57600080fd5b6000806000808486036102608112156102b157600080fd5b610200808212156102c157600080fd5b86955085013593506102d890506102208501610265565b91506102e76102408601610281565b905092959194509250565b634e487b7160e01b600052602160045260246000fd5b634e487b7160e01b600052604160045260246000fd5b604051610100810167ffffffffffffffff8111828210171561034257610342610308565b60405290565b80356002811061027c57600080fd5b6000610140828403121561036a57600080fd5b6040516060810181811067ffffffffffffffff8211171561038d5761038d610308565b60405261039983610281565b8152602084603f8501126103ac57600080fd5b6103b461031e565b806101208601878111156103c757600080fd5b602087015b818110156103e357803584529284019284016103cc565b508160208601526103f381610348565b604086015250929695505050505050565b61026081016001600160e01b03198061041c88610281565b168352610100602088016020850137610120610439818901610348565b6002811061045757634e487b7160e01b600052602160045260246000fd5b90840152610140878101359084015261016080880135908401526101806001600160a01b03610487828a01610265565b16908401526101a08161049b898301610281565b1690840152506101c086810135908301526101e0808701359083015261020082018590526001600160a01b0384166102208301526001600160e01b0319831661024083015295945050505050565b6000602082840312156104fb57600080fd5b505191905056fea26469706673582212201ad875583eec07000cb48464607212d214ee47b95e22ddf509ce77f65651fb0264736f6c6343000819003360e060405234801561001057600080fd5b507fc0f59f76de44b1700c2de89e0eeffbbad523e049b6beef55441f371811f6276760c05261003d6100b4565b1561005b57604051633d23e4d160e11b815260040160405180910390fd5b60405163deafbeef60e01b9061007090610105565b6001600160e01b03199091168152602001604051809103906000f08015801561009d573d6000803e3d6000fd5b506001600160a01b031660a0526001608052610112565b600046600114806100c5575046600a145b806100d1575046612105145b806100dd57504661a4b1145b806100e957504661a4ba145b806100f45750466089145b80610100575046610144145b905090565b6109d780610aa983390190565b60805160a05160c0516109486101616000396000818160b70152818160ea015281816101b801526104a30152600081816061015261017a015260008181610111015261022e01526109486000f3fe608060405234801561001057600080fd5b50600436106100575760003560e01c806308c84e701461005c5780634bc8e31c146100a05780634e8f9396146100b55780638d98dea9146100e55780639a44ea841461010c575b600080fd5b6100837f000000000000000000000000000000000000000000000000000000000000000081565b6040516001600160a01b0390911681526020015b60405180910390f35b6100b36100ae3660046105cd565b610140565b005b7f00000000000000000000000000000000000000000000000000000000000000005b604051908152602001610097565b6100d77f000000000000000000000000000000000000000000000000000000000000000081565b6101337f000000000000000000000000000000000000000000000000000000000000000081565b604051610097919061063c565b61015761015236869003860186610785565b61022c565b61017061016936869003860186610785565b83836102bf565b6001600160a01b037f00000000000000000000000000000000000000000000000000000000000000001663ab750e756101b66101b136889003880188610825565b610512565b7f0000000000000000000000000000000000000000000000000000000000000000866040518463ffffffff1660e01b81526004016101f693929190610849565b60006040518083038186803b15801561020e57600080fd5b505afa158015610222573d6000803e3d6000fd5b5050505050505050565b7f0000000000000000000000000000000000000000000000000000000000000000600181111561025e5761025e610626565b815160400151600181111561027557610275610626565b146102bc5760405162461bcd60e51b8152602060048201526012602482015271496e76616c69642070726f6f66206d6f646560701b60448201526064015b60405180910390fd5b50565b816001600160a01b03168360600151600001516001600160a01b0316146103195760405162461bcd60e51b815260206004820152600e60248201526d24b73b30b634b210383937bb32b960911b60448201526064016102b3565b806001600160e01b0319168360600151602001516001600160e01b031916146103775760405162461bcd60e51b815260206004820152601060248201526f24b73b30b634b21039b2b632b1ba37b960811b60448201526064016102b3565b43836060015160400151106103de5760405162461bcd60e51b815260206004820152602760248201527f496e76616c696420626c6f636b206e756d6265723a20626c6f636b2066726f6d6044820152662066757475726560c81b60648201526084016102b3565b436101008460600151604001516103f591906108a5565b101561044f5760405162461bcd60e51b815260206004820152602360248201527f496e76616c696420626c6f636b206e756d6265723a20626c6f636b20746f6f206044820152621bdb1960ea1b60648201526084016102b3565b60608084015160408101519101519040146104a15760405162461bcd60e51b8152602060048201526012602482015271092dcecc2d8d2c840c4d8dec6d640d0c2e6d60731b60448201526064016102b3565b7f000000000000000000000000000000000000000000000000000000000000000083602001511461050d5760405162461bcd60e51b815260206004820152601660248201527510d85b1b11dd595cdd1259081b5a5cdb585d18da195960521b60448201526064016102b3565b505050565b606060018260400151600181111561052c5761052c610626565b0361056d5750602081810151519151604080516001600160e01b03199092169282019290925260248082019390935281518082039093018352604401905290565b81516020808401516040516105839392016108cc565b6040516020818303038152906040529050919050565b919050565b80356001600160a01b038116811461059957600080fd5b80356001600160e01b03198116811461059957600080fd5b6000806000808486036102608112156105e557600080fd5b610200808212156105f557600080fd5b869550850135935061060c9050610220850161059e565b915061061b61024086016105b5565b905092959194509250565b634e487b7160e01b600052602160045260246000fd5b602081016002831061065e57634e487b7160e01b600052602160045260246000fd5b91905290565b634e487b7160e01b600052604160045260246000fd5b604051610100810167ffffffffffffffff8111828210171561069e5761069e610664565b60405290565b6040516080810167ffffffffffffffff8111828210171561069e5761069e610664565b80356002811061059957600080fd5b600061014082840312156106e957600080fd5b6040516060810181811067ffffffffffffffff8211171561070c5761070c610664565b60405290508061071b836105b5565b8152602084603f85011261072e57600080fd5b61073661067a565b8061012086018781111561074957600080fd5b602087015b81811015610765578035845292840192840161074e565b50816020860152610775816106c7565b6040860152505050505092915050565b600081830361020081121561079957600080fd5b6107a16106a4565b6107ab85856106d6565b815261014084013560208201526101608401356040820152608061017f19830112156107d657600080fd5b6107de6106a4565b91506107ed610180850161059e565b82526107fc6101a085016105b5565b60208301526101c084013560408301526101e09093013560608083019190915283015250919050565b6000610140828403121561083857600080fd5b61084283836106d6565b9392505050565b606081526000845180606084015260005b81811015610877576020818801810151608086840101520161085a565b506000608082850101526080601f19601f830116840101915050836020830152826040830152949350505050565b808201808211156108c657634e487b7160e01b600052601160045260246000fd5b92915050565b6001600160e01b03198316815260006004820183825b60088110156109015781518352602092830192909101906001016108e2565b50505061010482019050939250505056fea264697066735822122095ea7bb556cabe419f1ca6039e888214a7b8ad5d78efc3594c52624743f1b8b164736f6c6343000819003360a0604052348015600f57600080fd5b506040516109d73803806109d7833981016040819052602c91603d565b6001600160e01b031916608052606c565b600060208284031215604e57600080fd5b81516001600160e01b031981168114606557600080fd5b9392505050565b60805161093d61009a6000396000818160610152818160ee015281816101fa015261025f015261093d6000f3fe608060405234801561001057600080fd5b50600436106100575760003560e01c8063053c238d1461005c5780631599ead5146100a15780633a115bb1146100b657806366cf0e4b14610149578063ab750e751461015c575b600080fd5b6100837f000000000000000000000000000000000000000000000000000000000000000081565b6040516001600160e01b031990911681526020015b60405180910390f35b6100b46100af3660046106a5565b61016f565b005b61013c6100c43660046106e0565b604080518082019091526060815260006020820152604080518082019091526001600160e01b03197f000000000000000000000000000000000000000000000000000000000000000016606082015260648101839052806084810160408051601f198184030181529190528152602001929092525090565b604051610098919061071d565b61013c610157366004610763565b610189565b6100b461016a366004610785565b6101ba565b61018661017c8280610804565b83602001356101d7565b50565b6040805180820190915260608152600060208201526101b36100c46101ae85856102fc565b610463565b9392505050565b6101d184846101cc6101ae86866102fc565b6101d7565b50505050565b6101e5600460008486610852565b6101ee9161087c565b6001600160e01b0319167f00000000000000000000000000000000000000000000000000000000000000006001600160e01b0319161461029257610236600460008486610852565b61023f9161087c565b604051632e2ce35360e21b81526001600160e01b031991821660048201527f0000000000000000000000000000000000000000000000000000000000000000909116602482015260440160405180910390fd5b60408051602081018390520160408051601f1981840301815291905280516020909101206102c38360048187610852565b6040516102d19291906108ac565b6040518091039020146102f75760405163439cc0cd60e01b815260040160405180910390fd5b505050565b610304610660565b6040518060a0016040528084815260200160028060405161033c907072697363302e53797374656d537461746560781b815260110190565b602060405180830381855afa158015610359573d6000803e3d6000fd5b5050506040513d601f19601f8201168201806040525081019061037c91906108bc565b60408051602081019290925260009082018190526060820152600160f81b606482015260660160408051601f19818403018152908290526103bc916108d5565b602060405180830381855afa1580156103d9573d6000803e3d6000fd5b5050506040513d601f19601f820116820180604052508101906103fc91906108bc565b815260200160405180604001604052806000600281111561041f5761041f6108f1565b8152602001600060ff1681525081526020016000801b815260200161045a60405180604001604052808681526020016000801b8152506105c8565b90529392505050565b600060028060405161048d907172697363302e52656365697074436c61696d60701b815260120190565b602060405180830381855afa1580156104aa573d6000803e3d6000fd5b5050506040513d601f19601f820116820180604052508101906104cd91906108bc565b606084015184516020860151608087015160408801515160189060028111156104f8576104f86108f1565b60408a810151602090810151825191820199909952908101969096526060860194909452608085019290925260a084015263ffffffff909116901b60e01b6001600160e01b03191660c082015260f89190911b6001600160f81b03191660c4820152600160fa1b60c882015260ca015b60408051601f1981840301815290829052610582916108d5565b602060405180830381855afa15801561059f573d6000803e3d6000fd5b5050506040513d601f19601f820116820180604052508101906105c291906108bc565b92915050565b60006002806040516105ec906b1c9a5cd8cc0b93dd5d1c1d5d60a21b8152600c0190565b602060405180830381855afa158015610609573d6000803e3d6000fd5b5050506040513d601f19601f8201168201806040525081019061062c91906108bc565b83516020808601516040805192830194909452928101919091526060810191909152600160f91b6080820152608201610568565b6040805160a08101825260008082526020820152908101610691604080518082019091526000808252602082015290565b815260006020820181905260409091015290565b6000602082840312156106b757600080fd5b813567ffffffffffffffff8111156106ce57600080fd5b8201604081850312156101b357600080fd5b6000602082840312156106f257600080fd5b5035919050565b60005b838110156107145781810151838201526020016106fc565b50506000910152565b60208152600082516040602084015280518060608501526107458160808601602085016106f9565b60209490940151604084015250506080601f909201601f1916010190565b6000806040838503121561077657600080fd5b50508035926020909101359150565b6000806000806060858703121561079b57600080fd5b843567ffffffffffffffff808211156107b357600080fd5b818701915087601f8301126107c757600080fd5b8135818111156107d657600080fd5b8860208285010111156107e857600080fd5b6020928301999098509187013596604001359550909350505050565b6000808335601e1984360301811261081b57600080fd5b83018035915067ffffffffffffffff82111561083657600080fd5b60200191503681900382131561084b57600080fd5b9250929050565b6000808585111561086257600080fd5b8386111561086f57600080fd5b5050820193919092039150565b6001600160e01b031981358181169160048510156108a45780818660040360031b1b83161692505b505092915050565b8183823760009101908152919050565b6000602082840312156108ce57600080fd5b5051919050565b600082516108e78184602087016106f9565b9190910192915050565b634e487b7160e01b600052602160045260246000fdfea2646970667358221220299d03273ed3ed1b2c034dce76432c0a5a386bc46e34689a584390b71220cc5664736f6c6343000819003360e060405234801561001057600080fd5b507fc0f59f76de44b1700c2de89e0eeffbbad523e049b6beef55441f371811f6276760c05260006080526040517fa516a057c9fbf5629106300934d48e0e775d4230e41e503347cad96fcbde7e2e907f0eb6febcf06c5df079111be116f79bd8c7e85dc9448776ef9a59aaf2624ab5519061008a906100c3565b9182526020820152604001604051809103906000f0801580156100b1573d6000803e3d6000fd5b506001600160a01b031660a0526100d0565b61256f80610a6783390190565b60805160a05160c05161094861011f6000396000818160b70152818160ea015281816101b801526104a30152600081816061015261017a015260008181610111015261022e01526109486000f3fe608060405234801561001057600080fd5b50600436106100575760003560e01c806308c84e701461005c5780634bc8e31c146100a05780634e8f9396146100b55780638d98dea9146100e55780639a44ea841461010c575b600080fd5b6100837f000000000000000000000000000000000000000000000000000000000000000081565b6040516001600160a01b0390911681526020015b60405180910390f35b6100b36100ae3660046105cd565b610140565b005b7f00000000000000000000000000000000000000000000000000000000000000005b604051908152602001610097565b6100d77f000000000000000000000000000000000000000000000000000000000000000081565b6101337f000000000000000000000000000000000000000000000000000000000000000081565b604051610097919061063c565b61015761015236869003860186610785565b61022c565b61017061016936869003860186610785565b83836102bf565b6001600160a01b037f00000000000000000000000000000000000000000000000000000000000000001663ab750e756101b66101b136889003880188610825565b610512565b7f0000000000000000000000000000000000000000000000000000000000000000866040518463ffffffff1660e01b81526004016101f693929190610849565b60006040518083038186803b15801561020e57600080fd5b505afa158015610222573d6000803e3d6000fd5b5050505050505050565b7f0000000000000000000000000000000000000000000000000000000000000000600181111561025e5761025e610626565b815160400151600181111561027557610275610626565b146102bc5760405162461bcd60e51b8152602060048201526012602482015271496e76616c69642070726f6f66206d6f646560701b60448201526064015b60405180910390fd5b50565b816001600160a01b03168360600151600001516001600160a01b0316146103195760405162461bcd60e51b815260206004820152600e60248201526d24b73b30b634b210383937bb32b960911b60448201526064016102b3565b806001600160e01b0319168360600151602001516001600160e01b031916146103775760405162461bcd60e51b815260206004820152601060248201526f24b73b30b634b21039b2b632b1ba37b960811b60448201526064016102b3565b43836060015160400151106103de5760405162461bcd60e51b815260206004820152602760248201527f496e76616c696420626c6f636b206e756d6265723a20626c6f636b2066726f6d6044820152662066757475726560c81b60648201526084016102b3565b436101008460600151604001516103f591906108a5565b101561044f5760405162461bcd60e51b815260206004820152602360248201527f496e76616c696420626c6f636b206e756d6265723a20626c6f636b20746f6f206044820152621bdb1960ea1b60648201526084016102b3565b60608084015160408101519101519040146104a15760405162461bcd60e51b8152602060048201526012602482015271092dcecc2d8d2c840c4d8dec6d640d0c2e6d60731b60448201526064016102b3565b7f000000000000000000000000000000000000000000000000000000000000000083602001511461050d5760405162461bcd60e51b815260206004820152601660248201527510d85b1b11dd595cdd1259081b5a5cdb585d18da195960521b60448201526064016102b3565b505050565b606060018260400151600181111561052c5761052c610626565b0361056d5750602081810151519151604080516001600160e01b03199092169282019290925260248082019390935281518082039093018352604401905290565b81516020808401516040516105839392016108cc565b6040516020818303038152906040529050919050565b919050565b80356001600160a01b038116811461059957600080fd5b80356001600160e01b03198116811461059957600080fd5b6000806000808486036102608112156105e557600080fd5b610200808212156105f557600080fd5b869550850135935061060c9050610220850161059e565b915061061b61024086016105b5565b905092959194509250565b634e487b7160e01b600052602160045260246000fd5b602081016002831061065e57634e487b7160e01b600052602160045260246000fd5b91905290565b634e487b7160e01b600052604160045260246000fd5b604051610100810167ffffffffffffffff8111828210171561069e5761069e610664565b60405290565b6040516080810167ffffffffffffffff8111828210171561069e5761069e610664565b80356002811061059957600080fd5b600061014082840312156106e957600080fd5b6040516060810181811067ffffffffffffffff8211171561070c5761070c610664565b60405290508061071b836105b5565b8152602084603f85011261072e57600080fd5b61073661067a565b8061012086018781111561074957600080fd5b602087015b81811015610765578035845292840192840161074e565b50816020860152610775816106c7565b6040860152505050505092915050565b600081830361020081121561079957600080fd5b6107a16106a4565b6107ab85856106d6565b815261014084013560208201526101608401356040820152608061017f19830112156107d657600080fd5b6107de6106a4565b91506107ed610180850161059e565b82526107fc6101a085016105b5565b60208301526101c084013560408301526101e09093013560608083019190915283015250919050565b6000610140828403121561083857600080fd5b61084283836106d6565b9392505050565b606081526000845180606084015260005b81811015610877576020818801810151608086840101520161085a565b506000608082850101526080601f19601f830116840101915050836020830152826040830152949350505050565b808201808211156108c657634e487b7160e01b600052601160045260246000fd5b92915050565b6001600160e01b03198316815260006004820183825b60088110156109015781518352602092830192909101906001016108e2565b50505061010482019050939250505056fea2646970667358221220b6a4ef8f38a2e14c0aacfe6221d00f1c4fd37f9964f8e8f6b6e713914d0d77f464736f6c6343000819003361010060405234801561001157600080fd5b5060405161256f38038061256f83398101604081905261003091611074565b610039826102bf565b6001600160801b031990811660a0521660805260c08190526040517f72697363302e47726f74683136526563656970745665726966696572506172618152656d657465727360d01b60208201526002908190602601602060405180830381855afa1580156100ab573d6000803e3d6000fd5b5050506040513d601f19601f820116820180604052508101906100ce9190611098565b8361021f8460008190506008817eff00ff00ff00ff00ff00ff00ff00ff00ff00ff00ff00ff00ff00ff00ff00ff16901b6008827fff00ff00ff00ff00ff00ff00ff00ff00ff00ff00ff00ff00ff00ff00ff00ff0016901c1790506010817dffff0000ffff0000ffff0000ffff0000ffff0000ffff0000ffff0000ffff16901b6010827fffff0000ffff0000ffff0000ffff0000ffff0000ffff0000ffff0000ffff000016901c1790506020817bffffffff00000000ffffffff00000000ffffffff00000000ffffffff16901b6020827fffffffff00000000ffffffff00000000ffffffff00000000ffffffff0000000016901c17905060408177ffffffffffffffff0000000000000000ffffffffffffffff16901b6040827fffffffffffffffff0000000000000000ffffffffffffffff000000000000000016901c179050608081901b608082901c179050919050565b61022761042d565b60408051602081019590955284019290925260608301526080820152600360f81b60a082015260a20160408051601f198184030181529082905261026a916110e1565b602060405180830381855afa158015610287573d6000803e3d6000fd5b5050506040513d601f19601f820116820180604052508101906102aa9190611098565b6001600160e01b03191660e052506111869050565b600080806104138460008190506008817eff00ff00ff00ff00ff00ff00ff00ff00ff00ff00ff00ff00ff00ff00ff00ff16901b6008827fff00ff00ff00ff00ff00ff00ff00ff00ff00ff00ff00ff00ff00ff00ff00ff0016901c1790506010817dffff0000ffff0000ffff0000ffff0000ffff0000ffff0000ffff0000ffff16901b6010827fffff0000ffff0000ffff0000ffff0000ffff0000ffff0000ffff0000ffff000016901c1790506020817bffffffff00000000ffffffff00000000ffffffff00000000ffffffff16901b6020827fffffffff00000000ffffffff00000000ffffffff00000000ffffffff0000000016901c17905060408177ffffffffffffffff0000000000000000ffffffffffffffff16901b6040827fffffffffffffffff0000000000000000ffffffffffffffff000000000000000016901c179050608081901b608082901c179050919050565b608081901b956001600160801b0319909116945092505050565b60408051600680825260e082019092526000918291906020820160c08036833701905050905060027f12ac9a25dcd5e1a832a9061a082c15dd1d61aa9c4d553505739d0f5d65dc3be47f025aa744581ebe7ad91731911c898569106ff5a2d30f3eee2b23c60ee980acd46040516020016104b1929190918252602082015260400190565b60408051601f19818403018152908290526104cb916110e1565b602060405180830381855afa1580156104e8573d6000803e3d6000fd5b5050506040513d601f19601f8201168201806040525081019061050b9190611098565b8160008151811061051e5761051e6110f4565b60200260200101818152505060027f0707b920bc978c02f292fae2036e057be54294114ccc3c8769d883f688a1423f7f2e32a094b7589554f7bc357bf63481acd2d55555c203383782a4650787ff6642604051602001610588929190918252602082015260400190565b60408051601f19818403018152908290526105a2916110e1565b602060405180830381855afa1580156105bf573d6000803e3d6000fd5b5050506040513d601f19601f820116820180604052508101906105e29190611098565b816001815181106105f5576105f56110f4565b60200260200101818152505060027f0bca36e2cbe6394b3e249751853f961511011c7148e336f4fd974644850fc3477f2ede7c9acf48cf3a3729fa3d68714e2a8435d4fa6db8f7f409c153b1fcdf9b8b60405160200161065f929190918252602082015260400190565b60408051601f1981840301815290829052610679916110e1565b602060405180830381855afa158015610696573d6000803e3d6000fd5b5050506040513d601f19601f820116820180604052508101906106b99190611098565b816002815181106106cc576106cc6110f4565b60200260200101818152505060027f1b8af999dbfbb3927c091cc2aaf201e488cbacc3e2c6b6fb5a25f9112e04f2a77f2b91a26aa92e1b6f5722949f192a81c850d586d81a60157f3e9cf04f679cccd6604051602001610736929190918252602082015260400190565b60408051601f1981840301815290829052610750916110e1565b602060405180830381855afa15801561076d573d6000803e3d6000fd5b5050506040513d601f19601f820116820180604052508101906107909190611098565b816003815181106107a3576107a36110f4565b60200260200101818152505060027f2b5f494ed674235b8ac1750bdfd5a7615f002d4a1dcefeddd06eda5a076ccd0d7f2fe520ad2020aab9cbba817fcbb9a863b8a76ff88f14f912c5e71665b2ad5e8260405160200161080d929190918252602082015260400190565b60408051601f1981840301815290829052610827916110e1565b602060405180830381855afa158015610844573d6000803e3d6000fd5b5050506040513d601f19601f820116820180604052508101906108679190611098565b8160048151811061087a5761087a6110f4565b60200260200101818152505060027f0f1c3c0d5d9da0fa03666843cde4e82e869ba5252fce3c25d5940320b1c4d4937f214bfcff74f425f6fe8c0d07b307482d8bc8bb2f3608f68287aa01bd0b69e8096040516020016108e4929190918252602082015260400190565b60408051601f19818403018152908290526108fe916110e1565b602060405180830381855afa15801561091b573d6000803e3d6000fd5b5050506040513d601f19601f8201168201806040525081019061093e9190611098565b81600581518110610951576109516110f4565b602002602001018181525050600280604051610990907f72697363305f67726f746831362e566572696679696e674b65790000000000008152601a0190565b602060405180830381855afa1580156109ad573d6000803e3d6000fd5b5050506040513d601f19601f820116820180604052508101906109d09190611098565b60027f2d4d9aa7e302d9df41749d5507949d05dbea33fbb16c643b22f599a2be6df2e27f14bedd503c37ceb061d8ec60209fe345ce89830a19230301f076caff004d1926604051602001610a2e929190918252602082015260400190565b60408051601f1981840301815290829052610a48916110e1565b602060405180830381855afa158015610a65573d6000803e3d6000fd5b5050506040513d601f19601f82011682018060405250810190610a889190611098565b604080517f0967032fcbf776d1afc985f88877f182d38480a653f2decaa9794cbc3bf3060c60208201527f0e187847ad4c798374d0d6732bf501847dd68bc0e071241e0213bc7fc13db7ab918101919091527f304cfbd1e08a704a99f5e847d93f8c3caafddec46b7a0d379da69a4d112346a760608201527f1739c1b1a457a8c7313123d24d2f9192f896b7c63eea05a9d57f06547ad0cec8608082015260029060a00160408051601f1981840301815290829052610b46916110e1565b602060405180830381855afa158015610b63573d6000803e3d6000fd5b5050506040513d601f19601f82011682018060405250810190610b869190611098565b604080517f198e9393920d483a7260bfb731fb5d25f1aa493335a9e71297e485b7aef312c260208201527f1800deef121f1e76426a00665e5c4479674322d4f75edadd46debd5cd992f6ed918101919091527f090689d0585ff075ec9e99ad690c3395bc4b313370b38ef355acdadcd122975b60608201527f12c85ea5db8c6deb4aab71808dcb408fe3d1e7690c43d37b4ce6cc0166fa7daa608082015260029060a00160408051601f1981840301815290829052610c44916110e1565b602060405180830381855afa158015610c61573d6000803e3d6000fd5b5050506040513d601f19601f82011682018060405250810190610c849190611098565b604080517f03b03cd5effa95ac9bee94f1f5ef907157bda4812ccf0b4c91f42bb629f83a1c60208201527f1aa085ff28179a12d922dba0547057ccaae94b9d69cfaa4e60401fea7f3e0333918101919091527f110c10134f200b19f6490846d518c9aea868366efb7228ca5c91d2940d03076260608201527f1e60f31fcbf757e837e867178318832d0b2d74d59e2fea1c7142df187d3fc6d3608082015260029060a00160408051601f1981840301815290829052610d42916110e1565b602060405180830381855afa158015610d5f573d6000803e3d6000fd5b5050506040513d601f19601f82011682018060405250810190610d829190611098565b610dfd6002604051610db7907f72697363305f67726f746831362e566572696679696e674b65792e49430000008152601d0190565b602060405180830381855afa158015610dd4573d6000803e3d6000fd5b5050506040513d601f19601f82011682018060405250810190610df79190611098565b88610e93565b6040805160208101979097528601949094526060850192909252608084015260a083015260c0820152600560f81b60e082015260e20160408051601f1981840301815290829052610e4d916110e1565b602060405180830381855afa158015610e6a573d6000803e3d6000fd5b5050506040513d601f19601f82011682018060405250810190610e8d9190611098565b91505090565b600080805b8351811015610eed57610ee385858360018851610eb5919061110a565b610ebf919061110a565b81518110610ecf57610ecf6110f4565b602002602001015184610ef760201b60201c565b9150600101610e98565b5090505b92915050565b604080516002808252606082018352600092839291906020830190803683370190505090508381600081518110610f3057610f306110f4565b6020026020010181815250508281600181518110610f5057610f506110f4565b6020908102919091010152610f658582610f6e565b95945050505050565b60408051600080825260208201909252610f89848483610f91565b949350505050565b600080610fa4845161103d60201b60201c565b9050600060088261ffff16901c60088361ffff16901b1760f01b9050600286868684604051602001610fd9949392919061112b565b60408051601f1981840301815290829052610ff3916110e1565b602060405180830381855afa158015611010573d6000803e3d6000fd5b5050506040513d601f19601f820116820180604052508101906110339190611098565b9695505050505050565b600061ffff821115611070576040516306dfcc6560e41b8152601060048201526024810183905260440160405180910390fd5b5090565b6000806040838503121561108757600080fd5b505080516020909101519092909150565b6000602082840312156110aa57600080fd5b5051919050565b6000815160005b818110156110d257602081850181015186830152016110b8565b50600093019283525090919050565b60006110ed82846110b1565b9392505050565b634e487b7160e01b600052603260045260246000fd5b81810381811115610ef157634e487b7160e01b600052601160045260246000fd5b8481526000602080830186516020880160005b8281101561115a5781518452928401929084019060010161113e565b50505061116781876110b1565b6001600160f01b03199590951685525050600290920195945050505050565b60805160a05160c05160e05161138f6111e0600039600081816087015281816107df015261084401526000818160e1015261091d01526000818161013901526108e401526000818161017901526108bc015261138f6000f3fe608060405234801561001057600080fd5b506004361061007d5760003560e01c806334baeab91161005b57806334baeab9146101115780638989fa2e146101345780639181e4b114610174578063ab750e751461019b57600080fd5b8063053c238d146100825780631599ead5146100c7578063258038e2146100dc575b600080fd5b6100a97f000000000000000000000000000000000000000000000000000000000000000081565b6040516001600160e01b031990911681526020015b60405180910390f35b6100da6100d5366004610ee3565b6101ae565b005b6101037f000000000000000000000000000000000000000000000000000000000000000081565b6040519081526020016100be565b61012461011f366004610f36565b6101c8565b60405190151581526020016100be565b61015b7f000000000000000000000000000000000000000000000000000000000000000081565b6040516001600160801b031990911681526020016100be565b61015b7f000000000000000000000000000000000000000000000000000000000000000081565b6100da6101a9366004610f9c565b61079a565b6101c56101bb828061101b565b83602001356107bc565b50565b6000610728565b7f30644e72e131a029b85045b68181585d2833e84879b9709143e1f593f000000181106101c5576000805260206000f35b600060405183815284602082015285604082015260408160608360076107d05a03fa915081610233576000805260206000f35b825160408201526020830151606082015260408360808360066107d05a03fa91505080610264576000805260206000f35b5050505050565b7f12ac9a25dcd5e1a832a9061a082c15dd1d61aa9c4d553505739d0f5d65dc3be485527f025aa744581ebe7ad91731911c898569106ff5a2d30f3eee2b23c60ee980acd460208601526000608086018661030887357f2e32a094b7589554f7bc357bf63481acd2d55555c203383782a4650787ff66427f0707b920bc978c02f292fae2036e057be54294114ccc3c8769d883f688a1423f84610200565b61035860208801357f2ede7c9acf48cf3a3729fa3d68714e2a8435d4fa6db8f7f409c153b1fcdf9b8b7f0bca36e2cbe6394b3e249751853f961511011c7148e336f4fd974644850fc34784610200565b6103a860408801357f2b91a26aa92e1b6f5722949f192a81c850d586d81a60157f3e9cf04f679cccd67f1b8af999dbfbb3927c091cc2aaf201e488cbacc3e2c6b6fb5a25f9112e04f2a784610200565b6103f860608801357f2fe520ad2020aab9cbba817fcbb9a863b8a76ff88f14f912c5e71665b2ad5e827f2b5f494ed674235b8ac1750bdfd5a7615f002d4a1dcefeddd06eda5a076ccd0d84610200565b61044860808801357f214bfcff74f425f6fe8c0d07b307482d8bc8bb2f3608f68287aa01bd0b69e8097f0f1c3c0d5d9da0fa03666843cde4e82e869ba5252fce3c25d5940320b1c4d49384610200565b50823581527f30644e72e131a029b85045b68181585d97816a916871ca8d3c208c16d87cfd4760208401357f30644e72e131a029b85045b68181585d97816a916871ca8d3c208c16d87cfd4703066020820152833560408201526020840135606082015260408401356080820152606084013560a08201527f2d4d9aa7e302d9df41749d5507949d05dbea33fbb16c643b22f599a2be6df2e260c08201527f14bedd503c37ceb061d8ec60209fe345ce89830a19230301f076caff004d192660e08201527f0967032fcbf776d1afc985f88877f182d38480a653f2decaa9794cbc3bf3060c6101008201527f0e187847ad4c798374d0d6732bf501847dd68bc0e071241e0213bc7fc13db7ab6101208201527f304cfbd1e08a704a99f5e847d93f8c3caafddec46b7a0d379da69a4d112346a76101408201527f1739c1b1a457a8c7313123d24d2f9192f896b7c63eea05a9d57f06547ad0cec8610160820152600087015161018082015260206000018701516101a08201527f198e9393920d483a7260bfb731fb5d25f1aa493335a9e71297e485b7aef312c26101c08201527f1800deef121f1e76426a00665e5c4479674322d4f75edadd46debd5cd992f6ed6101e08201527f090689d0585ff075ec9e99ad690c3395bc4b313370b38ef355acdadcd122975b6102008201527f12c85ea5db8c6deb4aab71808dcb408fe3d1e7690c43d37b4ce6cc0166fa7daa610220820152843561024082015260208501356102608201527f03b03cd5effa95ac9bee94f1f5ef907157bda4812ccf0b4c91f42bb629f83a1c6102808201527f1aa085ff28179a12d922dba0547057ccaae94b9d69cfaa4e60401fea7f3e03336102a08201527f110c10134f200b19f6490846d518c9aea868366efb7228ca5c91d2940d0307626102c08201527f1e60f31fcbf757e837e867178318832d0b2d74d59e2fea1c7142df187d3fc6d36102e08201526020816103008360086107d05a03fa9051169695505050505050565b604051610380810160405261074060008401356101cf565b61074d60208401356101cf565b61075a60408401356101cf565b61076760608401356101cf565b61077460808401356101cf565b61078160a08401356101cf565b61078e818486888a61026b565b90508060005260206000f35b6107b684846107b16107ac86866109d7565b610b40565b6107bc565b50505050565b6107ca600460008486611069565b6107d391611093565b6001600160e01b0319167f00000000000000000000000000000000000000000000000000000000000000006001600160e01b031916146108775761081b600460008486611069565b61082491611093565b604051632e2ce35360e21b81526001600160e01b031991821660048201527f0000000000000000000000000000000000000000000000000000000000000000909116602482015260440160405180910390fd5b60008061088383610c9f565b909250905060006108978560048189611069565b8101906108a49190611175565b8051602080830151604080850151815160a0810183527f0000000000000000000000000000000000000000000000000000000000000000608090811c82527f0000000000000000000000000000000000000000000000000000000000000000811c9582019590955289851c8184015288851c60608201527f00000000000000000000000000000000000000000000000000000000000000009481019490945290516334baeab960e01b815294955060009430946334baeab99461096d9491939192600401611232565b602060405180830381865afa15801561098a573d6000803e3d6000fd5b505050506040513d601f19601f820116820180604052508101906109ae91906112d9565b9050806109ce5760405163439cc0cd60e01b815260040160405180910390fd5b50505050505050565b6109df610e9e565b6040518060a00160405280848152602001600280604051610a17907072697363302e53797374656d537461746560781b815260110190565b602060405180830381855afa158015610a34573d6000803e3d6000fd5b5050506040513d601f19601f82011682018060405250810190610a5791906112fb565b60408051602081019290925260009082018190526060820152600160f81b606482015260660160408051601f1981840301815290829052610a9791611314565b602060405180830381855afa158015610ab4573d6000803e3d6000fd5b5050506040513d601f19601f82011682018060405250810190610ad791906112fb565b8152602001604051806040016040528060006002811115610afa57610afa611343565b8152602001600060ff1681525081526020016000801b8152602001610b3560405180604001604052808681526020016000801b815250610e06565b905290505b92915050565b6000600280604051610b6a907172697363302e52656365697074436c61696d60701b815260120190565b602060405180830381855afa158015610b87573d6000803e3d6000fd5b5050506040513d601f19601f82011682018060405250810190610baa91906112fb565b60608401518451602086015160808701516040880151516018906002811115610bd557610bd5611343565b60408a810151602090810151825191820199909952908101969096526060860194909452608085019290925260a084015263ffffffff909116901b60e01b6001600160e01b03191660c082015260f89190911b6001600160f81b03191660c4820152600160fa1b60c882015260ca015b60408051601f1981840301815290829052610c5f91611314565b602060405180830381855afa158015610c7c573d6000803e3d6000fd5b5050506040513d601f19601f82011682018060405250810190610b3a91906112fb565b60008080610dec8460008190506008817eff00ff00ff00ff00ff00ff00ff00ff00ff00ff00ff00ff00ff00ff00ff00ff16901b6008827fff00ff00ff00ff00ff00ff00ff00ff00ff00ff00ff00ff00ff00ff00ff00ff0016901c1790506010817dffff0000ffff0000ffff0000ffff0000ffff0000ffff0000ffff0000ffff16901b6010827fffff0000ffff0000ffff0000ffff0000ffff0000ffff0000ffff0000ffff000016901c1790506020817bffffffff00000000ffffffff00000000ffffffff00000000ffffffff16901b6020827fffffffff00000000ffffffff00000000ffffffff00000000ffffffff0000000016901c17905060408177ffffffffffffffff0000000000000000ffffffffffffffff16901b60408277ffffffffffffffff0000000000000000ffffffffffffffff1916901c179050608081901b608082901c179050919050565b608081901b956001600160801b0319909116945092505050565b6000600280604051610e2a906b1c9a5cd8cc0b93dd5d1c1d5d60a21b8152600c0190565b602060405180830381855afa158015610e47573d6000803e3d6000fd5b5050506040513d601f19601f82011682018060405250810190610e6a91906112fb565b83516020808601516040805192830194909452928101919091526060810191909152600160f91b6080820152608201610c45565b6040805160a08101825260008082526020820152908101610ecf604080518082019091526000808252602082015290565b815260006020820181905260409091015290565b600060208284031215610ef557600080fd5b813567ffffffffffffffff811115610f0c57600080fd5b820160408185031215610f1e57600080fd5b9392505050565b8060408101831015610b3a57600080fd5b6000806000806101a0808688031215610f4e57600080fd5b610f588787610f25565b945060c0860187811115610f6b57600080fd5b604087019450610f7b8882610f25565b935050868187011115610f8d57600080fd5b50929591945092610100019150565b60008060008060608587031215610fb257600080fd5b843567ffffffffffffffff80821115610fca57600080fd5b818701915087601f830112610fde57600080fd5b813581811115610fed57600080fd5b886020828501011115610fff57600080fd5b6020928301999098509187013596604001359550909350505050565b6000808335601e1984360301811261103257600080fd5b83018035915067ffffffffffffffff82111561104d57600080fd5b60200191503681900382131561106257600080fd5b9250929050565b6000808585111561107957600080fd5b8386111561108657600080fd5b5050820193919092039150565b6001600160e01b031981358181169160048510156110bb5780818660040360031b1b83161692505b505092915050565b634e487b7160e01b600052604160045260246000fd5b6040516060810167ffffffffffffffff811182821017156110fc576110fc6110c3565b60405290565b6040805190810167ffffffffffffffff811182821017156110fc576110fc6110c3565b600082601f83011261113657600080fd5b61113e611102565b80604084018581111561115057600080fd5b845b8181101561116a578035845260209384019301611152565b509095945050505050565b6000610100828403121561118857600080fd5b6111906110d9565b61119a8484611125565b8152604084605f8501126111ad57600080fd5b6111b5611102565b8060c08601878111156111c757600080fd5b604087015b818110156111ed576111de8982611125565b845260209093019284016111cc565b508160208601526111fe8882611125565b604086015250929695505050505050565b8060005b60028110156107b6578151845260209384019390910190600101611213565b6101a08101611241828761120f565b60408083018660005b60028082106112595750611294565b82518460005b8381101561127d57825182526020928301929091019060010161125f565b50505092840192506020919091019060010161124a565b505050506112a560c083018561120f565b61010082018360005b60058110156112cd5781518352602092830192909101906001016112ae565b50505095945050505050565b6000602082840312156112eb57600080fd5b81518015158114610f1e57600080fd5b60006020828403121561130d57600080fd5b5051919050565b6000825160005b81811015611335576020818601810151858301520161131b565b506000920191825250919050565b634e487b7160e01b600052602160045260246000fdfea2646970667358221220fc4135949313faadab6fd27068ab8d2532e00d42b31df62f791d9905986d99b864736f6c63430008190033",
    "linkReferences": {}
  },
  "methodIdentifiers": {
    "prover()": "32a8f30f",
    "shiftOffset(bytes,uint256,uint256)": "e5e22773",
    "verifier()": "2b7ac3f3",
    "verify(((bytes4,bytes32[8],uint8),bytes32,uint256,(address,bytes4,uint256,bytes32)),address)": "a7ddb0b7"
  },
  "id": 28
}